:100000000C9428020C9460020C9460020C94600220
:100010000C9460020C9460020C9460020C946002D8
:100020000C9460020C9460020C9460020C945F21AA
:100030000C9410220C940A1C0C9460020C94600224
:100040000C9460020C9460020C9460020C94911C5D
:100050000C9460020C9460020C9460020C94600298
:100060000C9460020C9460020C9460020C94600288
:100070000C946002290014001A00080015001700F3
:100080001C0018000C00120013002A002B000400B2
:100090001600070009000A000B000D000E000F00FB
:1000A00033002800E1001D001B00060019000500B8
:1000B00011001000360037003800E500E000E300D2
:1000C000E20022522C002C002C0000002152E600FD
:1000D000E700E40035001E001F0020002100220080
:1000E000230024002500260027004C000100010009
:1000F00001000100010001000100010001000100F8
:1001000001000100010001000100010001000100E7
:1001100001000100010001000100010001000100D7
:1001200001000100010001000100000001000100C8
:100130000100010001003A003B003C003D003E0090
:100140003F00400041004200430044000100010024
:100150000100010001000100010001000100010097
:100160000100010001000100010001000100010087
:100170000100010001000100010001000100010077
:100180000100010001000100010000000100010068
:100190000100010001000100010001000100010057
:1001A0000100010001000100010001000100010047
:1001B0000100010001000100010001000100010037
:1001C0000100010001000100010001000100010027
:1001D0000100010001000100010001000100010017
:1001E0000100010001000100010000000100010008
:1001F0000100010000000000000000002A2B280080
:1002000000000000000000000000000000000029C5
:10021000000000002C1E3420212224342627252E05
:10022000362D3738271E1F2021222324252633333D
:10023000362E37381F0405060708090A0B0C0D0E69
:100240000F101112131415161718191A1B1C1D2F35
:100250003130232D350405060708090A0B0C0D0E55
:100260000F101112131415161718191A1B1C1D2F15
:100270003130354C0000000000000000000000009C
:10028000000000000000000000000000000000006E
:1002900000000000000000007E0F00D4FFFFFFC739
:1002A000000000781003340030006D003000310091
:1002B0003100300000000E034D00610065006C004D
:1002C0006B006B0000000403090409025B000301DA
:1002D00000A0FA0904000001030101000921110135
:1002E0000001224000070581030800010904010004
:1002F000020300000009211101000122220007056C
:100300008203200001070503032000010904020005
:10031000010300000009211101000122B6000705B8
:1003200084032000011201000200000008564A1157
:10033000000100010200010660FF0961A1010962DC
:10034000150026FF00952075088102096315002617
:10035000FF00952075089102C005010902A10185E1
:10036000020901A1000509190129081500250195B7
:1003700008750181020501093009311581257F9534
:10038000027508810609381581257F950175088158
:1003900006050C0A38021581257F9501750881062E
:1003A000C0C005010980A101850319012AB7001504
:1003B0000126B700950175108100C0050C0901A147
:1003C00001850419012AA002150126A002950175D4
:1003D000108100C005010906A1018506050719E085
:1003E00029E7150025019508750181020507190007
:1003F00029EF1500250195F0750181020508190105
:100400002905950575019102950175039101C005B6
:10041000010906A101050719E029E7150025019545
:1004200008750181029501750881010507190029E8
:10043000FF150026FF0095067508810005081901C3
:100440002905950575019102950175039101C0007B
:1004500011241FBECFEFD4E0DEBFCDBF04B603FE34
:1004600018C08091B4029091B502A091B602B091EB
:10047000B7028730904BA740B04B59F41092B402AA
:100480001092B5021092B6021092B702E0E0F8E3C3
:10049000099511E0A0E0B1E0E2EDF9E402C00590B9
:1004A0000D92A83AB107D9F722E0A8EAB1E001C05D
:1004B0001D92A43BB207E1F70E941B120C949524F5
:1004C0000C94000084E00895282F8430E0F4643018
:1004D000D0F44C30C0F4862F90E06CE070E00E94C5
:1004E000C023FC01E40FF11D822F90E060E370E077
:1004F0000E94C023E80FF91FEE0FFF1FEC58FF4FBB
:1005000085919491089581E090E0089581E00895A7
:1005100081E008950E948802089508950E948D0246
:100520000895A5E0B0E0E7E9F2E00C9401244983E6
:100530005A833091AF0189819A81311119C06623A4
:1005400099F0222389F00E948408182F682F89814E
:100550009A810E945B0869817A81812F0E948E0FA7
:100560002596E3E00C941D240E947008182FF3CF09
:100570000E94840869817A81F1CFFC01262F408195
:1005800051816281738184810E949102089581E08A
:100590000895CF93DF93EC0160E00E94BD02BE019D
:1005A0000E948E02DF91CF91089508950E944B071B
:1005B0000E94D5022FEF84E39CE0215080409040C0
:1005C000E1F700C0000008950E94D6020E94B51C09
:1005D00008950E94D6020E94D91C08950F931F937C
:1005E000CF93DF938C0161E00E94BD02EC01B80162
:1005F0000E942515811106C080E0DF91CF911F91E7
:100600000F910895B801CE010E948A028823A1F3B8
:10061000B801CE010E94E819882371F3B801CE0118
:100620000E940C16882341F3B801CE010E945A198A
:10063000882311F3B801CE010E942C1A8823E1F21D
:10064000F8018281882361F0C330FCE7DF07E9F01D
:1006500058F4C115ECE7DE07A9F0C130DC47B9F06A
:10066000C8010E948602C9CFCB358CE7D807A9F014
:10067000CC35ECE7DE0771F0CA35DC4789F70E941C
:10068000DE0CEECF0E94E402B7CF0E94E60C0E947F
:10069000E902B2CF0E94D40CE3CF0E94E20CE0CF7B
:1006A0000E94EC1B0E94770308950E947B030E9426
:1006B000F11B0895089581E008950895CF93DF9385
:1006C000D82F0E945B03C82F882319F08D2F0E941A
:1006D0005D038C2FDF91CF9108950895CF93C82F9C
:1006E0000E945A038C2F0E945E03CF91089580E0F0
:1006F0000E946E0308950E947F1A0E946E0308955F
:10070000CF930E947F1AC82F8091AA018C1779F08D
:10071000C093AA010E94761C6093AB017093AC0158
:100720008093AD019093AE018C2F0E946E03CF9108
:100730000895ABE0B0E0EFE9F3E00C9402244F83BE
:10074000588769877A878B8761110E941F0C1E82E8
:100750001D8285E0FE013796DE01119601900D9213
:100760008A95E1F78C819D81892B61F449815A81B9
:100770006B817C818D819E810E94420B2B96E2E0F1
:100780000C941E2489819A8189238F3F79F3CE01AD
:1007900001960E94C7028111E9CFF0CFFC01808150
:1007A00091810E94B1080895662329F00E94A81241
:1007B0000E947B1308950E940213FACFCF93C82F93
:1007C0008823C9F08238C9F40E947F1A81FD13C0C2
:1007D00089E30E94D70B0E94400C2FEF87EE93E035
:1007E000215080409040E1F700C0000089E30E9462
:1007F000DF0B0E94400CCF9108958338A1F40E9432
:100800007F1A80FDF8CF83E50E94D70B0E94400C31
:100810002FEF81EE94E0215080409040E1F700C03E
:10082000000083E5E4CF8438A1F40E947F1A82FDA2
:10083000E2CF87E40E94D70B0E94400C2FEF81EE9D
:1008400094E0215080409040E1F700C0000087E430
:10085000CECF8CEF8C0F813A90F46C2F80910001F9
:10086000909101010E94121B882329F08C2F0E9475
:10087000DF0B0E94400C8C2F0E94D70BBACF80E276
:100880008C0F883048F4C77081E001C0880FCA958A
:10089000EAF70E94020CADCFEBE5EC0FE33040F439
:1008A000F0E0E45BFE4F808190E00E94B41AA3CF99
:1008B000E8E5EC0FEB3150F4F0E0EE0FFF1FEA5EDD
:1008C000FE4F808191810E94D91A95CF83E38C0FCE
:1008D000833108F090CF61E08C2F0E94D4038BCF3E
:1008E000882309F456C0823879F40E947F1A81FF68
:1008F00050C089E30E94D70B0E94400C89E30E94FC
:10090000DF0B0E94400C0895833859F40E947F1A2F
:1009100080FF3FC083E50E94D70B0E94400C83E517
:10092000EECF843859F40E947F1A82FF32C087E4E8
:100930000E94D70B0E94400C87E4E1CF9CEF980FF8
:10094000913AE8F290E2980F983050F4877091E075
:1009500001C0990F8A95EAF7892F0E94080CD1CF20
:100960009BE5980F933028F490E080E00E94B41A41
:10097000089598E5980F9B3128F490E080E00E945C
:10098000D91A089593E3980F933118F460E00E9408
:10099000D40308951F93CF93DF93182FEB010E9488
:1009A000DE03209739F4812F0E947004DF91CF91EC
:1009B0001F9108958FE99FE00197F1F700C00000B3
:1009C0002197EFCF70E060E0893311F460E570E0CB
:1009D0000E94CA040895882321F00E94020C0E94FC
:1009E000400C0895882321F00E94080C0E94400CBE
:1009F0000895B0E0A0E0EFEFF4E00C94FB236C016D
:100A0000D62FC72FFC011281058102950F700E941D
:100A1000F80BE82E8823E9F0E12E1123D1F08C2F7A
:100A2000807F803451F080E28D0F8830F8F0011122
:100A300004C08C2F807E8032C9F08091920282FFA8
:100A400015C082E00E94A30C0E94F80B91E0E82EF2
:100A5000E926BC2EB2949FE0B922FBE0FB15B8F169
:100A6000EB2DF0E0E956FB4D0C94E523E12CF1CFA2
:100A70000C2F0F70C07F11F00295007F112399F0A9
:100A8000002359F080E28D0F883010F0D11107C09B
:100A9000802F0E94020C0E94400C8D2F63C0802F7B
:100AA0000E94120CF8CF8D2F0E947004002379F061
:100AB00080E28D0F883010F0D11104C0802F0E9489
:100AC000080C03C0802F0E94180C0E94400C2B2D94
:100AD0002850330B2430310520F40E947F1A0E94E5
:100AE0006E03EE2089F00E94F40B80FD0DC0F6012C
:100AF00012820E94EE0B0E94C907C6010E940B07DA
:100B00000E94EE0B0E94D507CDB7DEB7E9E00C944A
:100B100017242C2F2F70F22EC07FC03219F0F294C0
:100B200080EFF822DD2381F0D13009F449C0112390
:100B300009F451C0002309F448C0F601858180FF03
:100B4000ACCF8F70858341C08091920282FD15C029
:100B5000112359F0FF2029F08F2D0E94020C0E94D2
:100B6000400C80E00E94DE03B2CF80E00E9470045F
:100B7000FF2009F4ACCF8F2DA2CF112381F00111FA
:100B800006C00E94220C8F290E94EB04A0CF0130E6
:100B9000C1F70E94220C8F290E94290C98CF0111C5
:100BA00006C00E94360C8F2D0E94F20490CF0130B7
:100BB00009F48DCF8F2D0E94F2040E94360C87CF4E
:100BC000112329F0063008F082CF8F2DDDCF0530BC
:100BD00008F07DCFE8CF002331F3D93349F4FFEF9C
:100BE00027EE33E0F15020403040E1F700C0000034
:100BF0008D2F0E9470046BCF8C2F86958695837005
:100C000069F0813009F063CF8D2F9C2F9370111103
:100C100002C080E090E00E94D91A59CF8D2F9C2FFE
:100C20009370111102C080E090E00E94B41A4FCF7F
:100C3000612F8D2F0E94D4034ACF8C2F837079F5BA
:100C4000111145CF4D2F429546954770440F440FE3
:100C50008D2F8F70042E01C0880F0A94EAF72D2F74
:100C60002071D4FF07C02FE030E001C0220F4A9569
:100C7000EAF72095C695C695C370822BC23049F01D
:100C800058F4C13019F00E94A50721CF0E949F0798
:100C90001ECF0E94AB071BCF0E949C0718CF8695E2
:100CA000112311F08C2F8170882309F410CF4D2F60
:100CB000429546954770440F440F8D2F8F70042E38
:100CC00001C0880F0A94EAF72D2F2071D4FF07C0C6
:100CD0002FE030E001C0220F4A95EAF72095C69533
:100CE000C695C370822BC23049F058F4C13019F058
:100CF0000E94F407ECCE0E94EE07E9CE0E94FA07AC
:100D0000E6CE0E94B707E3CECF70112329F08C2FD7
:100D10000E94C9078D2F38CF8D2F0E94F2048C2F8F
:100D20000E94D507D4CED23F41F160F4D03FB9F054
:100D3000D13F81F0112309F446C00111AECE8C2FB2
:100D40008F711FC0D33F01F1D43FA1F78091920270
:100D500082FD24C08C2F8F71112311F312C0112337
:100D600041F0053008F0B3CE8C2F8F710E94E2075E
:100D7000AECE063008F0ABCEF7CF8C2F8F711111AD
:100D8000CFCF0E94C907A3CE112329F08C2F8F71DA
:100D90000E94C0079CCE0E94BC0799CE112349F047
:100DA000CF718C2F0E94C90763E08C2F0E94850CA5
:100DB0008ECE81E00E94A30C023008F488CE82E03F
:100DC0000E94A30C84CE002359F0D93309F010CF30
:100DD0008FEF97EEE3E081509040E040E1F706CFDF
:100DE0008C2F8F719DCF0F931F93CF93DF93EC01C7
:100DF000688179818A810E94BC088C010E94000868
:100E00000E949B07B801CE010E94F904DF91CF91A7
:100E10001F910F910895CF93DF93EC018B819C81FB
:100E2000892B29F08881998189238F3F51F4DF91A3
:100E3000CF910895CE010E94F306CE010E94C9020F
:100E4000F6CFCE010E94EE028111F4CF0E94F80B82
:100E5000882369F38A81882351F38091920282FF6B
:100E6000E6CF82E00E94A30CE2CF90E080E00E94F7
:100E7000B41A90E080E00E94D91A0E941F0C0E94D0
:100E8000400C0E9497130E947B1308950E94E70B69
:100E90000E94350708950E940F0C0E94460708958E
:100EA00092959F70963091F058F4925F9F709230B7
:100EB00058F4803F19F030F4883E30F481E0089512
:100EC0009A5FF4CF843FD1F380E00895883EB0F379
:100ED000813FD1F7F3CFFC0183819481892B29F0E5
:100EE0008081918189238F3F11F480E00895808172
:100EF00091810E94B1080E9450070895A5E0B0E0DA
:100F0000E4E8F7E00C9402242596E2E00C941E2419
:100F1000A6E0B0E0EEE8F7E00C9402242696E2E0CA
:100F20000C941E2408950E94920708950E9493072E
:100F30008093C301089508950E94960708959091A3
:100F4000C301892B0E94960708959091C3018923BC
:100F50000E94960708959091C30189270E949607E1
:100F600008950E94920708950E94B10708950E9473
:100F7000B4078093C201089580E00E94B7070895E6
:100F800091E001C0990F8A95EAF7892F0E94B7076F
:100F9000089521E030E001C0220F8A95EAF78091A0
:100FA000C201822B0E94B707089521E030E001C002
:100FB000220F8A95EAF720958091C20182230E9430
:100FC000B707089521E030E001C0220F8A95EAF7C3
:100FD0008091C20182270E94B70708959091C201B3
:100FE000892B0E94B70708959091C20189230E941E
:100FF000B70708959091C20189270E94B707089505
:101000000895CF93DF93282FFA01862F8770A1E0F0
:1010100001C0AA0F8A95EAF7CB0133E09695879530
:101020003A95E1F763E070E00E94C023E80FF91FF2
:1010300050E040E0822F90E06191EF0121979C0108
:10104000042E02C0369527950A94E2F72170219567
:1010500026272A23262728834F5F5F4F43305105D9
:1010600059F7DF91CF910895FB01A82FA77023E0D6
:10107000969587952A95E1F763E070E00E94C0237A
:10108000E80FF91F50E040E080E0219130E00A2EA7
:1010900002C0369527950A94E2F721703327042E73
:1010A00001C0220F0A94EAF7822B4F5F5F4F433053
:1010B000510559F70895282F362F943080F48C303D
:1010C00070F4892F90E06CE070E00E94C023BC01B6
:1010D000620F711D40EB51E0832F0E9401080895BB
:1010E000282F943078F48C3068F4892F90E06CE0ED
:1010F00070E00E94C02360EB71E0820F911D0E949E
:101100003408089580E00895CF92DF92FF920F9304
:101110001F93CF93DF936C010091C2018091C301B3
:10112000082BC3E0D0E010E0FC2EC8010C2E02C05A
:10113000959587950A94E2F780FD0CC02197A0F75A
:10114000F12C8F2DDF91CF911F910F91FF90DF90A8
:10115000CF900895B6018C2F0E949A0F019771F3DA
:10116000F0CFCF93DF93EC010E948408BE010E9470
:101170009A0FDF91CF9108951F93CF93DF93EB01E7
:101180009091AF01992339F0CB010E94B108DF9112
:10119000CF911F910895882369F0CB010E948408A4
:1011A000182F682FCE010E945B08BE01812F0E947C
:1011B0009A0FEDCFCB010E947008182FF6CFE1E017
:1011C000F0E0DF0102C0AA0FBB1F6A95E2F7BD0184
:1011D000DF0102C0AA0FBB1F4A95E2F76A2B01C0CC
:1011E000EE0F2A95EAF7962F9823961302C08E2BBE
:1011F0000895E0958E230895242F462F682F80911F
:10120000C2010E94DF080E94B7070895CF93DF93C1
:10121000C091C4018091C5018C1303C0DF91CF91AF
:101220000895D0E0CE0166E070E00E94C023FC018A
:10123000EA53FE4F4081518162817381848195819F
:101240000E9488072196C770E5CF4091F601509122
:10125000F7016091F8017091F9018091FA01909184
:10126000FB010E9488070895CF93B82FC62F2091C5
:10127000C401A091C5012A1303C080E0CF91089555
:1012800030E0C90166E070E00E94C023FC01EA532F
:10129000FE4F81818C1306C080818B1303C0828135
:1012A000841304C02F5F3F4F2770E5CF81E0E6CF66
:1012B0001F93CF93DF938091FB01807F09F04AC099
:1012C0008091F801882309F445C02091C401B091B0
:1012D000C5014091F601A091F701C091F901D091AB
:1012E000FA01142F1A23B217A9F130E02097B1F1B7
:1012F0001F3FA1F1C90166E070E00E94C023FC011C
:10130000EA53FE4F81818A1329C08081841326C04D
:101310008281811123C0838194818C1B9D0B883C29
:101320009105E0F48091FB018F7080618093FB0157
:10133000C90166E070E00E94C023FC01E553FE4F46
:1013400090819F709061908386EF91E00E940B07DF
:101350000E940609DF91CF911F9108952F5F3F4FA3
:101360002770C1CFA1E1B0E0E8EBF9E00C94F823DD
:101370008C0185E0F801DE011D9601900D928A95A1
:10138000E1F7F801F28086EFA82E81E0B82E4091B7
:10139000F9015091FA014115510509F45AC1909192
:1013A000F6012091F701892F82238F3F09F451C163
:1013B000C080D18083809480E090F801B401641BE8
:1013C000750BEE2009F4F6C08091FB01382F307FB9
:1013D000683C710508F0AFC031117AC0EF2C2D11B7
:1013E00016C09C1114C0F11012C08F7080618093E0
:1013F000FB010E942509C5010E940B078091FB019A
:10140000F80185838E2D6196ECE00C9414248114F0
:101410009104C9F18C2D8D218F3FA9F181E08F2599
:1014200080FF05C04F2D6D2D8C2D0E943409811435
:10143000910459F18C2D8D218F3F39F181E08F2559
:10144000F82FF170BF2E80FF39C04F2D6D2D8C2DE0
:101450000E943409A82E811131C0CD86DE868D858B
:101460009E850E94B108292F22952F70243078F490
:101470009F702230A8F09923B9F0F8019581907FF0
:1014800099F4EA2CBFCF80E0CBCF80E0D9CF2A5FA0
:101490002F70223068F0C8010E940B07AB2CF1CFEF
:1014A000992311F0882369F3805E883050F3F3CFDD
:1014B000803F38F3815F833070F7E3CFFF2009F47A
:1014C000A1CF8091FB0181608093FB01E12C9ACF39
:1014D0002D1105C09C1103C0FF2009F486C0C8016E
:1014E0000E946B07882319F1FF2009F18091FB010D
:1014F000803270F02091F6013091F70138872F8308
:1015000019869B868A868C87CE0107960E940B07D8
:1015100086E0F801A6EFB1E001900D928A95E1F71F
:101520000E9458090E942509EE24E3946BCFC8015C
:101530000E940B07F9CF311114C0782D998A888A3F
:10154000A6016F2D89890E947E0786EF91E00E9497
:101550000B0786E0F50111928A95E9F70E942509AB
:10156000B5CF2D110EC09C110CC0F1100AC085839F
:10157000C8010E940B0786E0F50111928A95E9F7F0
:1015800041CFC8010E946B07882389F2FF2079F2BE
:101590008091FB01803208F4BBCF2091F60130919D
:1015A000F7013A8329831B829D828C828E83CE0130
:1015B0000196ACCF683C710508F03DC0EF2CFF20D0
:1015C00009F4B5CF2D1129C09C1127C08091FB01D2
:1015D00080FD1AC0982F907FB9F08583903F31F03D
:1015E000982F907F905F8F70892B8583C8010E9410
:1015F0000B0786E0F801A6EFB1E001900D928A9505
:10160000E1F70E942509FECE86E0F801A6EFB1E0E1
:1016100001900D928A95E1F7F5CEC8010E946B0703
:10162000811176CF8091FB0181608093FB01C8011D
:101630000E940B07E7CE782D998A888AA6016F2D24
:1016400089890E947E0786E0F50111928A95E9F763
:10165000D8CFFF2009F46BCFC8010E946B07E82E9A
:10166000882309F464CF86E0F801A6EFB1E0019089
:101670000D928A95E1F786EF91E00E94CE030E94D9
:101680005809BFCFACE0B0E0E8E4FBE00C940224E2
:101690004F83588769877A878B879C87CE01079607
:1016A0000E94B2098823A9F08A859B85892B39F08D
:1016B0004F815885842F85238F3F09F071C0809119
:1016C000C4019091C501891344C02C96E2E00C94AA
:1016D0001E2486E0FE013796DE01119601900D92E0
:1016E0008A95E1F78A859B85892B49F38F819885B7
:1016F00089238F3F21F38091C50190E09C012F5FEA
:101700003F4F277033274091C4014217130671F4ED
:101710000E944B071092C5011092C40186E0E6EFCB
:10172000F1E0DF011D928A95E9F7C9CF66E070E02C
:101730000E94C023DC01AA53BE4F96E0FE01319601
:1017400001900D929A95E1F72093C5010E94060938
:10175000B6CF90E066E070E00E94C0238A539E4FAF
:101760000E94B209882309F4B0CF8091C40190E0AF
:1017700066E070E00E94C023FC01EA53FE4F408106
:10178000518162817381848195810E948807809153
:10179000C40190E00196877099278093C4018FCF90
:1017A00069857A858B859C850E94880788CF682FFC
:1017B00080910001909101010E94921B0895682F71
:1017C00080910001909101010E94A01B08958091D9
:1017D0000001909101010E94AE1B089580911C02AE
:1017E000859585958595089580911C02877008954B
:1017F00090911C02977081E009F480E00895809137
:101800003F02089590913F02892B80933F020895F3
:10181000809590913F02982390933F0208951092F3
:101820003F02089590913E02892B80933E020895D5
:10183000809590913E02982390933E0208951092D5
:101840003E02089580911D02089508950E94250C7E
:1018500008959091920292FF08C090911D029817EE
:1018600021F080931D020E94260C089580911D0294
:10187000882329F010921D0280E00E94260C089512
:10188000CF93DF93E0910001F091010180913F023D
:101890008083E0910001F0910101808190913E02EE
:1018A000892B808390911D02992381F0E0910001A2
:1018B000F09101018081892B8083809100019091BA
:1018C00001010E94FE1A81110E94360CC091000194
:1018D000D091010140E250E06CEF71E0CE010E9436
:1018E0003D24892B59F080E2FE01ACEFB1E001907C
:1018F0000D928A95E1F7CE010E948C1ADF91CF916B
:10190000089508950E94810C08959091920292FF8B
:1019100011C0982F990F990F990F962B90931C0235
:101920000E94C90780911C028595859585950E9426
:10193000820C08950E94C907089510921C0280E04D
:101940000E94820C089590911C02809589238093B7
:101950001C02282F277091F4282F082E000C330B1F
:101960009217130659F09091920292FF07C0859545
:10197000859585950E94D5070E949D0C08959091AC
:10198000920292FB222720F9281769F080FB92F936
:101990009093920280919102909192020E94080D80
:1019A00082E00E94A30C08958091920282FB882716
:1019B00080F991E089270E94BF0C089581E00E9480
:1019C000BF0C089580E00E94BF0C08956FEF7FEF79
:1019D00090E080E00E947F24089590E080E00E94E3
:1019E0005B24873E9E4F19F40E94BF14089580E047
:1019F000089582E090E00E945324089583E090E0EF
:101A00000E945324089584E090E00E945B2408958E
:101A1000BC0184E090E00E947F240895AB01BC01EA
:101A20008FE090E00E9473240895AB01BC0183E134
:101A300090E00E947324089560E070E0CB010E9462
:101A4000150D089560E070E0CB010E940E0D0E941C
:101A50001C0D089567EE7EEF90E080E00E947F24E9
:101A600060E082E090E00E94612460E083E090E02A
:101A70000E9461241092C30160E074E184E090E070
:101A80000E947F2460E086E090E00E9461246FEF76
:101A900087E090E00E94612440E050E0BA0188E0D5
:101AA00090E00E94732460E08DE090E00E94612449
:101AB00040E050E0BA0188E190E00E94732460E0C9
:101AC00087E190E00E94612440E050E0BA018CE19F
:101AD00090E00E94732470E060E080E290E00E9459
:101AE0007F2440E050E0BA0188E190E00E94732436
:101AF00080E00E94D8140E9407150E94220D0895CC
:101B00000E942A0D0895682F8EE090E00E946124C3
:101B10000895A5E0B0E0EFE8FDE00C9400240E94F9
:101B20006A1C8C01809140029091410280179107BC
:101B3000A1F08FEF89838A831B820E946A1C8160D7
:101B4000782F9D838C8349815A816B818D810E947E
:101B5000990310934102009340022596E4E00C940F
:101B60001C240E94761C60934E0270934F02809357
:101B700050029093510260934A0270934B028093FB
:101B80004C0290934D020895089508950E94C50D4A
:101B9000089508950E94C90D089581E0089584E88C
:101BA00090E10E94751A0E94C40D0E94C60D08950E
:101BB0000E94CD0D08950E94D80D089508950895AE
:101BC0000E94DE0D0E94DF0D08950E94A3100E9466
:101BD0006D0308950E94611C0E9417150E947C11DC
:101BE0000E94E50D0E94CA0D0895A5E0B0E0EBEF5C
:101BF000FDE00C94F7230E94CD0D81110AC00E94D4
:101C0000890D0E94B9130E9480032596EDE00C9483
:101C100013240E94921122E4822E22E0922E64016B
:101C200010E0F601E190F1906F01812F0E94C61043
:101C30001F5F143009F449C0E816F90691F380914A
:101C4000520281FD0E94CF100E94DB0D782E10E021
:101C5000812F0E94C6107C01F401A190B1904F0128
:101C60008A159B0561F1A826BF2400E0CC24C3940B
:101C7000D12CC5018C219D21892BC1F07720B1F099
:101C800009831A8321E0C7018C219D21892B09F446
:101C900020E02B830E946A1C8160782F9D838C83B7
:101CA00049815A816B818D810E9499030F5FCC0C11
:101CB000DD1C0C30F1F6F4013297F182E0821F5FF7
:101CC000143031F60E94B10D9CCFE816F90609F0E8
:101CD000B6CF95CF1F93CF93DF930E949F0FEC0158
:101CE000C11580E5D807F0F5C11580E4D80708F0E4
:101CF0009EC0C03ED10520F5CD3CD10508F084C082
:101D0000C83AD10578F4C53AD10508F075C0C1309C
:101D1000D10519F1209709F1C430D105F0F4D0E0D4
:101D2000C0E01BC0C13CD105D0F7C85AD0E0CC0FF1
:101D3000DD1FC15BDE4F0990D881C02DD4640DC07A
:101D4000C11580E2D80708F0D7C0C11581E0D807D7
:101D500008F05CC0C83ED10510F7CE01DF91CF91ED
:101D60001F910895C03682E5D80728F5C03482E572
:101D7000D80708F06DC0C03282E5D80708F061C00E
:101D8000C11582E5D80708F49DC02C2F269526950D
:101D900030E085E0220F331F8A95E1F78C2F8370A6
:101DA000C1E0D0E002C0CC0FDD1F8A95E2F7C22B64
:101DB000D32BDD68D2CFC03A82E5D80760F4C038B3
:101DC00082E5D80708F45BC0CF71D0E0DC2FCC27C8
:101DD000C46FD06AC2CFC03C82E5D80708F466C0A1
:101DE000C03E82E5D80708F09ACFDC2FCC27CC275D
:101DF000DF71C06FD06AB1CFC55AD0E0CB57DE4F8C
:101E0000C881D0E0D064A9CFD065A7CF8D2F0E9424
:101E10004110182FCE0199270E949F0FC12FD0E0AB
:101E2000DC2FCC27CC27DF71C82BD92B96CFCE0146
:101E300099270E949F0FCC27DF70C82BD92BD06A1F
:101E40008CCFCF71D0E0DC2FCC27C16FD06A85CF8B
:101E50002C2F26952695277030E0B5E0220F331FF2
:101E6000BA95E1F78C2F8370C1E0D0E002C0CC0FAF
:101E7000DD1F8A95E2F7C22BD32BDC686ECF2C2FA7
:101E800026952695277030E0A5E0220F331FAA95EE
:101E9000E1F78C2F8370C1E0D0E002C0CC0FDD1FD2
:101EA0008A95E2F7C22BD32BDA6857CF8C2F8F712C
:101EB0000E944110C82FD0E0DC2FCC27CC27DF7147
:101EC000D0624BCF8C2F8F710E94411055E0D69578
:101ED000C7955A95E1F7CF70D0E0DC2FCC27282F9B
:101EE00030E084FF05C044E0220F331F4A95E1F73C
:101EF000C22BD32BD06931CF8D2F8F710E9441100F
:101F0000182FCE0199270E949F0FC12FD0E0DC2F00
:101F1000CC27CC27DF71C82BD92BD2CF462F7430DA
:101F200030F46C3020F4672F0E947218089590E00E
:101F300080E008950E948E0F0E946A0E08958238F4
:101F40009105B9F1B0F48133910509F47DC048F4ED
:101F50008932910509F46DC08A32910509F47BC07C
:101F600008958533910509F45FC08933910509F11E
:101F70000895833E9105D9F138F4803E910529F109
:101F8000823E910579F10895863E9105D9F1873E0B
:101F9000910509F43EC0843E910541F520919202DD
:101FA00021FF24C08091910284FD19C087EE90E04A
:101FB000089520919102237009F05AC02091920255
:101FC00023FF14C089E290E008952091910220FD42
:101FD00038C03091920230FF09C024FF43C090E026
:101FE00080E008952091910222FDF7CF089520917D
:101FF000910222FD3AC03091920230FD39C024FF97
:10200000F5CFEDCF2091910223FFF0CF24FDE7CF54
:10201000CDCF2091910223FD2EC03091920231FF4D
:10202000EECF84EE90E008952091910225FFDECF5F
:10203000C9CF2091910225FD21C02091920223FF5A
:10204000D5CF89E390E0D2CF2091910226FFCECF69
:102050008AE290E008952091910226FFC7CF81E3A4
:1020600090E0089583EE90E0089582EE90E0089568
:1020700080EE90E0089586EE90E0089585E390E08C
:1020800008959091910292FF06C0282F2871283060
:10209000F9F4877F846093FF06C0282F28712831C8
:1020A000F1F4877E84612091920220FF06C0382FD0
:1020B00038713830D9F4877F816021FF06C0282F1E
:1020C00028712831D1F4877E816194FD877E08953F
:1020D000282F24712430F9F68B7F8860DCCF282FDD
:1020E0002471243101F78B7E8861DDCF382F317167
:1020F000313019F78E7F8860E0CF282F2171213190
:1021000021F78E7E8861E1CF80E008950E94E60C81
:1021100008950E9492112FEF86E791E021508040B0
:102120009040E1F700C000000E94921180E00E9400
:10213000C61080FF04C00E9486100E94B51C08953E
:102140000E94891008950E94ED0C811102C00E9426
:10215000800D0E94F90C809352020E94030D90930F
:102160009202809391020E94A0100E94FE0C0E9495
:102170009C078091C2010E94B407089508950E94AF
:10218000BE10089508950E94C2100895E82FF0E04F
:10219000EE0FFF1FE556FD4F808191810895089550
:1021A00080EA8A95F1F7089500C008950E94D01042
:1021B0000895F894E82FE295EF70F0E031A1282F10
:1021C0002F7081E090E001C0880F2A95EAF7982FE0
:1021D0009095932391A392A1892B82A3789408953B
:1021E000CF93DF9385E90E94D91086E90E94D91028
:1021F00083E90E94D91084E90E94D910C8E8D1E08F
:1022000089918F3F11F00E94D91081E0C439D8071D
:10221000B9F7DF91CF910895AF92BF92DF92EF921D
:10222000FF920F931F93CF93DF938C01D62EC62F6F
:10223000D0E0CE018C569E4F7C01FC0120812F3FC7
:1022400009F44DC0F894E22FE295EF70F0E031A16F
:102250002F7081E090E001C0880F2A95EAF7932F54
:10226000982B91A392A18095892382A378940E94B0
:10227000D410E8E8F1E044E951E021E030E0B12C8D
:10228000A12C61916F3FA9F1A62FA295AF70B0E08C
:1022900090968C9190E06F7002C0959587956A95A5
:1022A000E2F780FD26C0C901A82AB92A220F331FF0
:1022B0004E175F0731F7F70180818F3F11F00E94C1
:1022C000D91061E0A114B10409F460E08D2D0E94E1
:1022D000D610CC0FDD1FC00FD11FB982A882DF91AD
:1022E000CF911F910F91FF90EF90DF90BF90AF9033
:1022F000089590E080E0D8CF0E94F01088E0EBE9EC
:10230000F2E0DF01982F1D929A95E9F7E3E9F2E0F8
:10231000DF011D928A95E9F784E00E94CD110E94A9
:10232000BF100895A8E0B0E0E8E9F1E10C94FF23C4
:102330008E010F5F1F4F88E0F80111928A95E9F72F
:10234000F12C6F2DC8010E940C11F394F4E0FF12E0
:10235000F8CF48E050E0B80183E992E00E943D24C4
:1023600021E0009709F420E0892B41F088E0F80192
:10237000A3E9B2E001900D928A95E1F744E06BE9A0
:1023800072E083E992E00E94CE11182F0E94C310E0
:10239000812F2896E5E00C941B240895CF92DF92BC
:1023A000EF92FF921F93CF93DF936C017B01C42FB9
:1023B000222349F081E0809355020E946A1C909389
:1023C0005402809353021091550211110AC010E07B
:1023D000812FDF91CF911F91FF90EF90DF90CF90F1
:1023E000089580915302909154020E94821C059797
:1023F00070F3D0E0CC0FDD1FAE01B601C7010E9423
:102400003D24892B41F0AE01B601C7010E944A2448
:1024100010925502DDCF10E0FBCF0E94501E0E94AB
:10242000EA0D0E945D1E08950E94621E0E94F50D35
:102430000E947C1E08950E94091C0E94361E0E9464
:10244000CF0D0E940D120E9414120E94E00DFBCFCE
:1024500080915C0280FF0DC06091070170E0660F03
:10246000771F60387105A8F561157105A1F1862FF8
:10247000089581FF08C06091070170E0660F771F23
:10248000660F771FEECF6091070170E082FD0BC0F1
:1024900080915B028823D1F02091060160910701B1
:1024A00070E0821730F043E0660F771F4A95E1F73E
:1024B000D8CF90E00E94C02333E0880F991F3A954F
:1024C000E1F7622F70E00E94D123CBCF68E070E08B
:1024D000CECF8FE7089581E0089580915C0280FF60
:1024E0000CC06091030170E07595679575956795CF
:1024F0006115710559F1862F089581FF06C060911D
:10250000030170E075956795F3CF6091030170E06A
:1025100082FD0CC060915A026623A9F0209102014D
:102520008091030190E0621730F0BC0160387105C2
:10253000F8F28FE7089570E00E94C023622F70E0E8
:102540000E94D123F3CF61E070E0D5CF81E0089500
:102550008D3C31F40E942812819580936002089589
:102560008E3C19F40E942812F8CF8F3C31F40E945F
:102570002812819580935F020895803D19F40E948E
:102580002812F8CF893D29F40E946D1280936102D0
:1025900008958A3D21F40E946D128195F7CF8B3DFD
:1025A00031F40E946D1281958093620208958C3DF2
:1025B00019F40E946D12F8CF9FE2980F983070F4D2
:1025C000815D990B21E030E001C0220F8A95EAF786
:1025D00080915E02822B80935E0208958D3D31F4DE
:1025E00080915C02816080935C0208958E3D21F4AD
:1025F00080915C028260F7CF8F3DB9F780915C02D9
:102600008460F1CF40915F028D3C59F4809160026B
:1026100087FF0DC01092600241110BC010925B0247
:1026200008C08E3C81F48091600218169CF344230C
:1026300081F08091610290916202892B09F05AC069
:1026400010925A0208958F3C49F447FFF0CF109240
:102650005F02809160028111ECCFE0CF803D19F4E0
:102660001416ACF3E4CF90916102893D29F4191658
:10267000F4F610926102DBCF8A3D19F497FFD7CFB1
:10268000F8CF909162028B3D29F497FFD0CF109242
:102690006202CDCF8C3D19F41916CCF3C8CF9FE25E
:1026A000980F983090F4815D990B21E030E0B901EA
:1026B00002C0660F771F8A95E2F7CB018095909153
:1026C0005E02892380935E02B2CF8D3D31F480910A
:1026D0005C028E7F80935C02AACF8E3D21F48091B4
:1026E0005C028D7FF7CF8F3D09F0A1CF80915C0216
:1026F0008B7FF0CF08950E946A1C9C0190915F022D
:1027000080916002982B21F0309359022093580257
:102710009091610280916202982B21F030935702D0
:10272000209356028DE592E00E94A61A089586E055
:10273000EDE5F2E0DF011D928A95E9F710925B0268
:1027400010925A0210925C020895FC01828181115C
:102750000EC0838181110BC08481811108C091E07A
:102760008581811101C090E0892F8170089581E0F9
:10277000FCCFA6E0B0E0EFEBF3E10C94012486E09F
:10278000EDE5F2E0DE01119601900D928A95E1F7F8
:1027900010925F0210926002109261021092620227
:1027A0008B819C81892B89F08091580290915902EC
:1027B0000E94821CFC0120915B022223C9F18091BE
:1027C00008018E171F0608F441C08D819E81892B58
:1027D00091F080915602909157020E94821CFC0158
:1027E00020915A02222309F476C0809104018E17A9
:1027F0001F0608F47FC0BE016F5F7F4F8DE592E03A
:102800000E94C01B811105C08DE592E00E94A513B6
:1028100081110E947B1386E0FE013196ADE5B2E0A6
:1028200001900D928A95E1F72696E3E00C941D2421
:102830008091090190E06AE070E00E94C0238E1749
:102840009F0718F62F5F20935B0202C02F3FD1F73E
:102850001B81112351F00E9428126FEF11160CF406
:1028600061E00E94B72380935F021C81112351F025
:102870000E9428126FEF11160CF461E00E94B7233A
:102880008093600280915F02882309F49ECF20919B
:102890006002222309F499CF082E000C990B65EBF6
:1028A00070E00E94C023992371F090935F02822F01
:1028B000220F990B65EB70E00E94C023992339F039
:1028C0009093600282CF81E080935F02F0CF81E03D
:1028D000809360027ACF8091050190E06AE070E019
:1028E0000E94C0238E179F0708F085CF2F5F20938B
:1028F0005A0202C02F3FD1F71D81112351F00E94CF
:102900006D126FEF11160CF461E00E94B7238093F3
:1029100061021E81112351F00E946D126FEF11169A
:102920000CF461E00E94B7238093620280916102FF
:10293000882309F460CF20916202222309F45BCF3F
:10294000082E000C990B65EB70E00E94C0239923C0
:1029500071F090936102822F220F990B65EB70E06A
:102960000E94C023992339F09093620244CF81E002
:1029700080936102F0CF81E0809362023CCF82E2DB
:1029800090E00E945324823289F483E290E00E9416
:102990005324883059F484E290E00E94532491E05B
:1029A000873209F090E0892F8170089580E0FCCF94
:1029B000CF93C82F6FEF811162E282E290E00E9414
:1029C00061246FEFC11168E083E290E00E9461240E
:1029D0006FEFC11167E284E290E00E946124CF9121
:1029E0000895089585E290E00E945324682F70E0D6
:1029F00090E080E008950895CF93C62F0E94FB14C5
:102A00006C2F85E290E00E946124CF91089580E0D0
:102A10000E94D81460E070E0CB010E94FC140E9478
:102A2000FE170E94CD1881E00E94D81408950E94DC
:102A3000F1140E94F2140E94FB140E94BF14811131
:102A400002C00E940715089508959C01FB01828130
:102A5000882351F0A90157574038510530F4822F8F
:102A60000E94DD1880E0089581E008952FEFFC01B9
:102A7000208308950E943615089580E00895B0E0FF
:102A8000A0E0E5E4F5E10C94FC23EC01C62E0E94E5
:102A90003D15811110C0E881E150E331B8F4F0E058
:102AA000ED55FB4D0C94E52319828CE08A836C2D47
:102AB000CE010E943D1DCDB7DEB7E8E00C9418248E
:102AC00089818230C1F028F4813061F08FEF8883F2
:102AD000EECF833099F08430C9F71A821B821C82B2
:102AE0001D82E5CF0E94761C0E94EB236A837B83C4
:102AF0008C839D83DCCF0E94F214F6CF8A81082F4D
:102B000010E07E019EE0D92ED80E0430110578F633
:102B1000802F0E94C610F701938384830F5F1F4F9D
:102B2000F2E0EF0EF11CD012F0CFC1CF89818230DC
:102B300031F0853059F68A810E942415B8CF6A8118
:102B40007B818C819D810E94EB230E94FC14AFCF7E
:102B50004B816A8189810E94C0179827892798270D
:102B60009D838C83A4CF2C813D813227232732275C
:102B70004B816A8189810E94E21799CF0E94FE17DA
:102B800096CF6C2DCE010E943A1591CF0E947E18EF
:102B900089838DCF0E9480189827892798279A8348
:102BA000898385CF6B8170E089819A81AE014C5F0A
:102BB0005F4F9827892798270E94831878CF6B81C9
:102BC00070E089819A81AE014C5F5F4F9827892719
:102BD00098270E94A8186BCF0E94CD1868CF0E943A
:102BE000A717D6CF6B8170E089819A81AE014C5FC7
:102BF0005F4F9827892798270E942A1858CF6B8102
:102C000070E089819A81AE014C5F5F4F98278927D8
:102C100098270E944E184BCFCF93DF93EC01FB0116
:102C20008281882309F4D2C09E01305723323105B6
:102C300008F0B2C00E94030D90939202809391021B
:102C4000FE01E150F047E232F10520F4EA54FB4D79
:102C50000C94E5238091910281608093910293C04E
:102C6000809192028860809392028DC0809191023F
:102C70008260F3CF809191028460EFCF80919102C6
:102C80008860EBCF809192028160EDCF80919202BB
:102C90008260E9CF809191028061DFCF80919102C3
:102CA0008062DBCF809191028064D7CF0E944B0776
:102CB000809191028068D1CF809191028C60CDCFBC
:102CC000809192028360CFCF809191028E7FC5CF99
:102CD00080919202877FC7CF809191028D7FBDCF77
:102CE000809191028B7FB9CF80919102877FB5CF80
:102CF000809192028E7FB7CF809192028D7FB3CF69
:102D0000809191028F7EA9CF809191028F7DA5CF76
:102D1000809191028F7BA1CF0E944B0780919102FD
:102D20008F779BCF80919102837F97CF8091920282
:102D30008C7F99CF8091910282FB992790F921E0B5
:102D4000922790FB82F990FB83F987CF80919202C2
:102D5000982F909591708E7F892B90FB81F983CF6E
:102D600090919102892F8F7B96FF806476CF0E948D
:102D70004B0790919102892F97FB87F980586DCF6F
:102D800081E00E94830D80919102909192020E94B5
:102D9000080D0E944B0780E0DF91CF91089580E0FD
:102DA000F0CF90919102892F8F7E94FF806155CF53
:102DB00090919102892F8E7F90FF81604ECF9091EC
:102DC0009202892F877F93FF88604DCF81E0E4CF07
:102DD000B0E0A0E0EEEEF6E10C94FD23E82FF0E089
:102DE000EC50FE4FD490282F26952695269530E05E
:102DF000F901EC56FD4F0491877010E0082E02C0D7
:102E0000159507950A94E2F701701127F901EC571F
:102E1000FD4FE490F12C082E02C0F594E7940A943B
:102E2000E2F791E0E922FF24F901EC58FD4FC4914B
:102E3000D0E002C0D595C7958A95E2F7C170DD272D
:102E40000115110519F081EE0E94DE03E114F10471
:102E500019F086EE0E94DE038D2D0E94E204E1143B
:102E6000F10419F086EE0E9470040115110519F0A5
:102E700081EE0E947004CD2B19F08CE20E94E204D6
:102E8000CDB7DEB7E7E00C941924EF92FF921F93C1
:102E9000CF93DF93EC01162F8881882309F451C06A
:102EA000813009F04BC08981813099F47E0122E0A4
:102EB000E20EF11C8A810E94E204E7012196812F33
:102EC000815050F3EFE9FFE03197F1F700C00000C7
:102ED000F7CF823041F47E0182E0E80EF11C8A8156
:102EE0000E94DE03EACF833041F47E01E2E0EE0E81
:102EF000F11C8A810E947004E0CF843011F0219689
:102F0000DDCF2A81229690E080E0FE0131962053A9
:102F1000330B2A30310548F0019780F2EFE9FFE0EA
:102F20003197F1F700C00000F7CF6AE070E00E942F
:102F3000C023820F931F2981EF01E7CF0E94E8167B
:102F4000BDCFDF91CF911F91FF90EF90089584E066
:102F50000895E82F862F90E068E170E00E94C0237A
:102F6000242F30E0220F331F280F391F8E2F90E0BF
:102F700060E670E00E94C023820F931F869608953A
:102F80000F931F93CF93DF938430C8F46430B8F469
:102F90004C30A8F40E94A9178C010E945324C82F1A
:102FA000D0E0DC2FCC27C80101960E9453249E015B
:102FB000282BC901DF91CF911F910F91089590E0C7
:102FC00080E0F8CF0F931F93CF93DF93122F032F3F
:102FD000843078F4643068F44C3058F40E94A917B7
:102FE000EC01602F0E946124612FCE0101960E94A6
:102FF0006124DF91CF911F910F9108950F931F933B
:10300000CF93DF93D0E0C0E010E019C00E946202CD
:1030100021E030E08C171D0639F034F0402F612F8D
:103020008C2F0E9464029C01402F612F8C2F0E94E4
:10303000E2170F5F0C3051F71F5F143011F000E002
:10304000E5CF2196C430D105F9F6DF91CF911F91DC
:103050000F910895EF92FF920F931F93CF93DF93F9
:10306000EC018A017C01E60EF71ECE018696CE1594
:10307000DF0529F4CDB7DEB7E6E00C941A24C0389A
:1030800021E0D20740F40E945324F80180830F5FAF
:103090001F4F2196EACFF8011082F9CFB0E0A0E0EF
:1030A000E4E5F8E10C94FC237C016A018C01060F35
:1030B000171FEC01CE018696C017D10729F4CDB7B2
:1030C000DEB7E8E00C941824C03821E0D20740F4C1
:1030D000FE01EE19FF09EC0DFD1D60810E946124C7
:1030E0002196E8CF843038F4643028F44C3018F45A
:1030F0000E94C017089590E080E0089580E108954F
:103100008AE592E00895EF92FF920F931F93CF9379
:10311000DF93EC018A017C01E60EF71ECE018A5591
:103120009E4FCE15DF0529F4CDB7DEB7E6E00C944F
:103130001A24CA3522E0D20740F40E945324F80131
:1031400080830F5F1F4F2196E9CFF8011082F9CFDE
:10315000B0E0A0E0EEEAF8E10C94FC237C016A0107
:103160008C01060F171FEC01CE018A559E4FC01728
:10317000D10729F4CDB7DEB7E8E00C941824CA359E
:1031800022E0D20740F4FE01EE19FF09EC0DFD1D0F
:1031900060810E9461242196E7CFCF93DF93C6EA36
:1031A000D1E060E0CE010E9461242196C11584E047
:1031B000D807B9F7DF91CF910895A8E0B0E0E3EE2A
:1031C000F8E10C94FA23F82E8FE08F1508F46EC006
:1031D0008FEF93E00E945324811168C006EA11E04A
:1031E000F11035C0FE0131966F0188E011928A9589
:1031F000E9F77801FFEFEF1AFF0AC8010E94532494
:1032000089831A82882309F451C08130D1F458018E
:1032100082E0A80EB11CC7010E9453248A83882330
:1032200009F444C09FEF980F9330F0F4780193E0D5
:10323000E90EF11CC5010E9453248B838823B1F150
:103240001C8260E0C6010E9445178701D2CF01159C
:1032500094E0190759F1C8010E945324811101C05B
:10326000FA940F5F1F4FBCCF7501843051F702E015
:1032700010E07501EFEFEE1AFE0AC5010E9453241B
:10328000F601E00FF11F8083882381F08C3741F431
:10329000E2E0F0E0EC0FFD1FE00FF11F1082D1CF54
:1032A0000F5F1F4F57010730110519F72896EAE005
:1032B0000C941624CF93DF93EB0186319C4711F5D4
:1032C0000E94FF0B9A81992399F08A7A91E009F480
:1032D00090E090936302811109C089E20E94D70BAC
:1032E0000E94400C80E0DF91CF91089585E3F6CFF6
:1032F00080916302811104C089E20E94DF0BF0CF4C
:1033000085E3FBCF81E0EFCF0F931F93CF93DF9344
:10331000C42FD22FFC0182818823C9F0409366021A
:103320000E946A1C909365028093640280E28C0F75
:10333000883040F4C77081E001C0880FCA95EAF771
:103340000E94EB04DF91CF911F910F91089510918E
:103350006602141332C080916402909165020E944B
:10336000821C883C910548F5C0E2CD0F1D17B9F0CD
:1033700080E2810F883040F4177081E001C0880F2F
:103380001A95EAF70E94F204C83048F481E09D2FB4
:10339000977001C0880F9A95EAF70E94EB04802F7E
:1033A0000E94E204C83070F6D77081E001C0880F37
:1033B000DA95EAF70E94F204C5CF80E28C0F8830DC
:1033C00008F6C77081E001C0880FCA95EAF7F2CF0E
:1033D0000F93DB0188519C4787309105A0F5FC01D4
:1033E000E852FB4D0C94E52306E221EE41EE6AE142
:1033F0007CE7CD010E94841980E00F91089507E2D7
:1034000025EE45EE6BE17CE7F4CF06E221EE40EEDF
:1034100068E17CE7EECF07E225EE44EE69E17CE768
:10342000E8CF06E221EE42EE6CE17CE7E2CF07E274
:1034300025EE46EE6DE17CE7DCCF08E221E045EECB
:103440006EE17CE7D6CF12968C91882319F010920A
:103450006602D3CF81E0D1CF1F93CF93DF9387371D
:103460002CE7920759F0C1E088379C47E1F4FB0153
:10347000C281CC2371F10E946F1A06C0FB01C28188
:10348000CC23B1F00E946C1A0E94C9070E94721AE4
:10349000D82F0E946F1AC82F0E946C1A4D2F6C2FC4
:1034A0000E94FC08C0E08C2FDF91CF911F910895FE
:1034B0000E946C1A0E94D5070E94721A182F0E944F
:1034C0006F1AD82F0E946C1A412F6D2F0E94FC0892
:1034D000EACF0E946F1AEECF80910C01089580917F
:1034E0000B01089580910A0108959093A90180939A
:1034F000A801089590936C0280936B020895E09167
:103500006B02F0916C02309729F00190F081E02D70
:103510000995089580E00895E0916B02F0916C02A6
:10352000309799F020911501222359F020919102B2
:1035300027FF07C0DC012C9111962C93119726E0F0
:103540002C930280F381E02D09950895E0916B02A0
:10355000F0916C02309739F022E0DC012C9304806A
:10356000F581E02D09950895A3E0B0E0EAEBFAE1DA
:103570000C9402242091690230916A0228173907BD
:10358000A1F090936A0280936902E0916B02F0913E
:103590006C02309751F023E029839B838A83068055
:1035A000F781E02DCE01019609952396E2E00C9477
:1035B0001E24A3E0B0E0EFEDFAE10C940224209188
:1035C00067023091680228173907A1F090936802CA
:1035D00080936702E0916B02F0916C02309751F09A
:1035E00024E029839B838A830680F781E02DCE0126
:1035F000019609952396E2E00C941E24FC01329674
:1036000080911501882321F0809191029EE187FF2E
:1036100096E080E0915008F4089521912223D1F39F
:103620008F5FF8CF662301F1209115012223F1F07D
:103630002091910227FF1AC0462F46954695469540
:103640004E3190F4677021E030E002C0220F331F4A
:103650006A95E2F7840F911DFC01828190E0282396
:10366000392381E0232B69F480E00895FC01329630
:1036700008962191261721F0E817F907D1F7F4CF22
:1036800081E008959C01FC0132969FEF80E041911A
:10369000461751F09F3F19F4411101C0982F8F5FD9
:1036A0008630A9F79F3F09F40895290F311D97FD32
:1036B0003A95F90162830895FC01329608962191AA
:1036C000261303C0DF0111971C92E817F907B9F719
:1036D0000895E62FE695E695E695EE3168F4E80F55
:1036E000F92FF11D677021E030E001C0220F6A95CB
:1036F000EAF78281822B82830895E62FE695E6958C
:10370000E695EE3170F4E80FF92FF11D677021E0B6
:1037100030E001C0220F6A95EAF7209582812823C4
:103720002283089520911501222339F020919102DE
:1037300027FF03C00E94691B08950E94421B089541
:1037400020911501222339F02091910227FF03C017
:103750000E947D1B08950E945C1B0895FC01329617
:1037600080911501882351F08091910287FF06C056
:103770008EE1DF011D928A95E9F7089586E0F9CF81
:1037800046E050E00E943D2421E0892B09F420E02E
:10379000822F089508950E94CA1B0895811106C0C2
:1037A00081E080936D020E94CB1B089582E0F9CFE7
:1037B00083E080936D020E94CB1B08950E94CE1B74
:1037C000089581E080936D020E94CB1B08950E94B2
:1037D000E11B0895089508950E94EB1B0895089534
:1037E00008950E94EA1B0895CF930E94EF1B0E9448
:1037F00092110E94F01BC0E08C2F0E94C610892BF2
:1038000031F4CF5FC430C1F780E0CF91089581E0FB
:10381000FCCF08951F921FB61F9211248F939F9380
:10382000AF93BF9380916E02811113C08091A30268
:103830009091A402A091A502B091A6024196A11D6B
:10384000B11D8093A3029093A402A093A502B0930C
:10385000A602BF91AF919F918F911F901FBE1F90A5
:1038600018958091AB02843031F10E945003109280
:103870006E0288E190E020E40FB6F894A89580935A
:1038800060000FBE2093600083B7817F846083BF98
:1038900083B7816083BF7894889583B78E7F83BF19
:1038A0000FB6F894A89580916000886180936000BD
:1038B000109260000FBE08950E944B070E945503AE
:1038C000089582E084BD93E095BD9AEF97BD809303
:1038D0006E0008952FB7F8948091A3029091A402EE
:1038E000A091A502B091A6022FBF08952FB7F8941A
:1038F0006091A3027091A4028091A5029091A6020A
:103900002FBF08959C014FB7F8948091A302909126
:10391000A402A091A502B091A6024FBF821B930BF7
:10392000089578941F921FB61F9211248F939F932E
:10393000AF93BF938091A3029091A402A091A5029E
:10394000B091A6020196A11DB11D8093A302909390
:10395000A402A093A502B093A602BF91AF919F913C
:103960008F911F901FBE1F90189581E08093E000FB
:1039700080E28093D8001092C9008FE19EE4019705
:10398000F1F700C0000087E090EBDC018093B40207
:103990009093B502A093B602B093B70288E19CE081
:1039A0000FB6F894A895809360000FBE90936000C6
:1039B000FFCF88E19CE00FB6F894A8958093600053
:1039C0000FBE90936000FFCF80918F0208959B01FE
:1039D000BA019091AB029430E9F48F708093E900C2
:1039E0009FEF8091E800915085FD06C085ED8A9596
:1039F000F1F700009111F5CF8091E80085FF0AC032
:103A000050E040E0C9010E94201F8091E8008E77BD
:103A10008093E800089543E050E0BC0184E00E94F8
:103A2000E71C089546E050E0BC0184E00E94E71CDA
:103A30000895CF93DF93EC0180911501811111C09E
:103A400048E050E0BE0181E00E94E71C80E2FE01F8
:103A5000AFE6B2E001900D928A95E1F7DF91CF9148
:103A600008958091910287FF05C040E284E050E014
:103A7000BE01EACF48E081E0FACF603231F440E2A3
:103A800050E0BC0182E00E94E71C08950E94E11B07
:103A900008956091A70281E0611101C080E00E9459
:103AA000D81B08959091AB0281E0943009F080E03A
:103AB0006091A7020E94DE1B089542E061EC81E064
:103AC0000E94772042E261EC84E00E94772042E28B
:103AD00061EC82E00E94772042E260EC83E00E9489
:103AE00077209091AB0281E0943009F080E0609102
:103AF000A7020E94CE1B08958091AD02833009F485
:103B000061C030F48130D1F1823009F49EC0089553
:103B10008A3009F48AC08B3009F46FC0893009F00B
:103B200050C08091AC02813209F04BC08091B0024C
:103B30009091B102009719F0029709F042C080916C
:103B4000E800877F8093E8008091E80082FF35C01D
:103B50008091F200823031F48091F100813011F0D7
:103B6000863021F48091F10080938F028091E800EB
:103B70008B778093E8000E94AB2023C08091AC0239
:103B8000813AF9F48091E800877F8093E800809182
:103B9000B0029091B102892B61F460E28FE692E06D
:103BA00070E00E94BE1F8091E8008B778093E80050
:103BB000089560E090E080E0F3CF8091AB02811146
:103BC000C3CF08958091AC02813AD9F78091B002B9
:103BD0009091B102892BA9F78091E800877F8093AB
:103BE000E8008091E80080FFFCCF80911501809370
:103BF000F1008091E8008E77BCCF8091AC028132D9
:103C000001F78091B0029091B102892BD1F6809199
:103C1000E800877F8093E8000E94AB208091AE028D
:103C2000809315010E944B0708958091AC02813268
:103C300041F68091E800877F8093E8000E94AB20E6
:103C40008091AF028093900208958091AC02813AF6
:103C500009F0B7CF8091E800877F8093E8008091DA
:103C6000E80080FFFCCF80919002C1CF84B7877FAE
:103C700084BF0FB6F894A895809160008861809306
:103C80006000109260000FBE80E890E00FB6F894DC
:103C900080936100909361000FBE0E94E71B08951E
:103CA0000E94FB200E944E21E2EEF0E080818460C1
:103CB000808378940E949C2308958DE091E00E9477
:103CC0007A1A08958091AB02853031F48091AB026D
:103CD000853019F00E945C1C08950E94311C80916F
:103CE000A902882399F30E94F41B882379F30E9488
:103CF0000A1F0E944B07EACFA0E2B0E0E2E8FEE133
:103D00000C9402248091AB02843009F583E0809307
:103D1000E9008091E80082FF1AC08091E80090E0FD
:103D200085FF09C050E040E060E270E0CE010196FE
:103D30000E946F1F91E08091E8008B778093E800EC
:103D4000992329F060E2CE0101960E943F15A096CA
:103D5000E2E00C941E249A014091B2025091B30209
:103D60000E94B31E0895492F55274330510521F174
:103D700068F44130510509F443C04230510509F45B
:103D800044C090E080E050E040E026C04132510560
:103D900051F142325105A9F76330710590F7FB01EB
:103DA000EE0FFF1FE556FE4F4081518168567E4F52
:103DB000FB01808190E010C099278130910581F04E
:103DC000009729F00297E9F6E4EAF2E002C0E6EC97
:103DD000F2E0849190E0AF01F901518340830895AE
:103DE000E6EBF2E0F6CF6330710558F6660F771F09
:103DF000FB01EF55FE4F4081518189E090E0ECCF0F
:103E000082E190E045E253E0E7CF8BE590E04AECB9
:103E100052E0E2CF84E089BD86E089BD09B400FEAE
:103E2000FDCF8091D8008F7D8093D8008091E000F5
:103E300082608093E0008091E00081FDFCCF0895D6
:103E4000AF92BF92CF92DF92FF920F931F93CF93C7
:103E5000DF936C01EB018A010E94CA20F82E8111C8
:103E600023C00115110539F0F80180819181C81B2B
:103E7000D90BC80ED91EB12CA12C2097A9F0809186
:103E8000E80085FD22C08091E8008E778093E800ED
:103E900001151105A1F0F80180819181A80EB91ECC
:103EA000B182A08285E0F82E8F2DDF91CF911F91F6
:103EB0000F91FF90DF90CF90BF90AF9008950E9438
:103EC000CA208823D1F2F82EEFCFF60181916F013D
:103ED0008093F1002197FFEFAF1ABF0ACECFAF92C8
:103EE000BF92CF92DF92FF920F931F93CF93DF93F6
:103EF0006C01EB018A010E94CA20F82E811123C0B7
:103F00000115110539F0F80180819181C81BD90B89
:103F1000C80ED91EB12CA12C2097A9F08091E800E1
:103F200085FD22C08091E8008B778093E800011521
:103F30001105A1F0F80180819181A80EB91EB1820E
:103F4000A08285E0F82E8F2DDF91CF911F910F91E8
:103F5000FF90DF90CF90BF90AF9008950E94CA204D
:103F60008823D1F2F82EEFCF8091F100F6018193F2
:103F70006F012197FFEFAF1ABF0ACECFFC018091EE
:103F8000B2029091B30286179707A0F061157105F0
:103F900029F49091E8009E779093E80090E06115F5
:103FA000710551F4911108C08091E80082FF32C080
:103FB00080E00895BC01F2CF8091AB028823B1F17B
:103FC0008530B1F18091E80083FD2EC08091E8003A
:103FD00082FDEACF8091E80080FFE1CF2091F200DE
:103FE00030E06115710519F02830310558F091E085
:103FF0002830310509F090E02091E8002E772093D9
:10400000E800CDCF81918093F100615071092F5F5D
:104010003F4FE7CF8091AB02882341F0853041F0DC
:104020008091E80083FFC0CF81E0089582E0089589
:1040300083E00895FC018091B2029091B30286174B
:104040009707A0F06115710529F48091E8008E773B
:104050008093E80090E06115710551F4911108C05A
:104060008091E80082FF33C080E00895BC01F2CF68
:104070008091AB028823B9F18530B9F18091E800D5
:1040800083FD2FC08091E80082FDEACF8091E80097
:1040900080FFE1CF2091F20030E06115710519F049
:1040A0002830310558F091E02830310509F090E0D2
:1040B0008091E8008E778093E800CDCF8491809343
:1040C000F1003196615071092F5F3F4FE6CF80912B
:1040D000AB02882341F0853041F08091E80083FFF6
:1040E000BFCF81E0089582E0089583E00895982F7E
:1040F000953028F08F708093E90081E008959093C7
:10410000E900242F762F50E0981731F07091EC00E1
:104110002091ED005091F00021FD02C09F5FE8CF9B
:104120003091EB003E7F3093EB003091ED003D7F0E
:104130003093ED003091EB0031603093EB007093E1
:10414000EC002093ED005093F0002091EE0027FD4D
:10415000E5CF80E008958091AC0287FF13C0809185
:10416000E80082FF06C08091E8008B778093E8002A
:1041700004C08091AB028111F2CF08958091AB020F
:104180008823D9F38091E80080FFF8CF8091E80080
:104190008E77ECCF2091E4003091E50095E6A901FF
:1041A0002091EC00822F817020FF06C08091E800F2
:1041B00080FF06C080E008952091E80022FD1AC02B
:1041C0008091AB02882389F0853089F08091EB00E3
:1041D00085FD0FC02091E4003091E50042175307A0
:1041E000F9F29150E1F684E0089582E0089583E0C9
:1041F000089581E008950E9459210E945C21E0EE1B
:10420000F0E0808181608083E8EDF0E080818F774D
:10421000808319BCE3E6F0E08081816080831092A6
:10422000AA0208950E9459210E945C218091D80021
:104230008F778093D8008091D80080688093D800D1
:104240008091D8008F7D8093D80084E089BD86E07E
:1042500089BD09B400FEFDCF1092AB021092A702F7
:104260001092A9021092A80242E060E080E00E9451
:1042700077208091E1008E7F8093E1008091E200C1
:1042800081608093E2008091E20088608093E20088
:104290008091E0008E7F8093E0000895E3E6F0E0F7
:1042A00080818E7F808381E08093AA020E94122108
:1042B00008951092E20008951092E10008951F926F
:1042C0000F920FB60F9211242F933F934F935F934A
:1042D0006F937F938F939F93AF93BF93EF93FF93CE
:1042E0008091E10082FF0BC08091E20082FF07C055
:1042F0008091E1008B7F8093E1000E949B2380915D
:10430000E10080FF19C08091E20080FF15C080911C
:10431000E2008E7F8093E2008091E20080618093D2
:10432000E2008091D80080628093D80019BC85E0BB
:104330008093AB020E94491D8091E10084FF2BC055
:104340008091E20084FF27C084E089BD86E089BDBA
:1043500089B5982F917080FFFBCF8091D8008F7D19
:104360008093D8008091E1008F7E8093E10080915E
:10437000E2008F7E8093E2008091E2008160809372
:10438000E2008091A702882309F443C084E080936F
:10439000AB020E94521D8091E10083FF29C08091F1
:1043A000E20083FF25C08091E100877F8093E100D8
:1043B00082E08093AB021092A7028091E1008E7F91
:1043C0008093E1008091E2008E7F8093E2008091F3
:1043D000E20080618093E20042E060E080E00E94C1
:1043E00077208091F00088608093F0000E94461D45
:1043F000FF91EF91BF91AF919F918F917F916F91BD
:104400005F914F913F912F910F900FBE0F901F9092
:1044100018958091E30087FD93E09093AB02B9CFAC
:104420001F920F920FB60F9211242F933F934F9329
:104430005F936F937F938F939F93AF93BF93CF932C
:10444000DF93EF93FF93D091E900DF708091EC0050
:10445000C82FC17080FDC0E81092E9008091F00083
:10446000877F8093F00078940E9454221092E90094
:104470008091F00088608093F000CD2BCF70C093C6
:10448000E900FF91EF91DF91CF91BF91AF919F91A3
:104490008F917F916F915F914F913F912F910F90ED
:1044A0000FBE0F901F901895AAE2B0E0EAE5F2E285
:1044B0000C9401248CEA92E02091F100FC012193FC
:1044C000CF01F2E0843B9F07B9F70E947C1D8091E9
:1044D000E80083FF1EC18091AC029091AD029A303A
:1044E00008F017C1E92FF0E0E152FB4D0C94E523F1
:1044F000803899F0823809F00CC18091B0028F7039
:10450000853008F006C18093E9008091EB0085FBBF
:10451000882780F91092E90006C08091A802909146
:10452000A902911182609091E800977F9093E80032
:104530008093F1001092F1008091E8008E77E5C041
:10454000882309F4D3C0823009F0E3C08091AE0221
:104550008111D6C08091B0028F702FEF280F2430C8
:1045600008F0D7C08093E9002091EB0020FFC8C07D
:10457000933031F48091EB0080628093EB00C0C0F7
:104580009091EB0090619093EB0021E030E001C04E
:10459000220F8A95EAF72093EA001092EA008091B0
:1045A000EB008860EACF8111B4C01091AE021F7792
:1045B0008091E3008078812B8093E3008091E80074
:1045C000877F8093E8000E94AB208091E80080FF05
:1045D000FCCF8091E30080688093E30082E01111BA
:1045E00083E08093AB0295C08058823008F091C080
:1045F0008091AE029091AF028C3D23E09207A1F52D
:1046000083E08A838AE289834FB7F894DE011396A8
:1046100020E03EE051E2E32FF0E050935700E491B8
:1046200020FF03C0E295EF703F5FEF708E2F90E0A8
:10463000EA30C0F0C7968D939D932F5F243159F7D0
:104640004FBF8091E800877F8093E8006AE270E0C6
:10465000CE0101960E94BE1F8091E8008B77809367
:10466000E80057C0C096E7CF6091B0027091B102E8
:10467000AE014F5F5F4F0E94AB1EBC01892B09F456
:1046800048C09091E800977F9093E80089819A81D3
:104690000E941A20E1CF8038E1F58091E800877F01
:1046A0008093E8008091A7028093F10045CF8111AB
:1046B00030C09091AE02923060F58091E800877F23
:1046C0008093E8009093A7020E94AB208091A702FC
:1046D000882311F084E005C08091E30087FDFACFC4
:1046E00081E08093AB020E945D1D13C08091AE02F9
:1046F000813079F481E0933009F080E08093A90261
:104700001092E9008091E800877F8093E8000E9482
:10471000AB208091E80083FF0AC08091E800877F8A
:104720008093E8008091EB0080628093EB00AA9672
:10473000E3E00C941D240895CF938091AB0288236D
:10474000A1F0C091E900CF709091EC00892F8170A9
:1047500090FD80E8C82B1092E9008091E80083FD6D
:104760000E945422CF70C093E900CF910895002495
:1047700080FD060E660F11F08695D1F7802D089505
:104780000024552704C0080E591F880F991F009751
:1047900029F076956795B8F37105B9F7802D952FB7
:1047A000089597FB072E16F4009407D077FD09D0E3
:1047B0000E94292407FC05D03EF4909581959F4FD7
:1047C0000895709561957F4F0895EE0FFF1F059036
:1047D000F491E02D09946927962769277827872780
:1047E000782708952F923F924F925F926F927F9217
:1047F0008F929F92AF92BF92CF92DF92EF92FF92F1
:104800000F931F93CF93DF93CDB7DEB7CA1BDB0B9C
:104810000FB6F894DEBF0FBECDBF09942A88398841
:1048200048885F846E847D848C849B84AA84B98448
:10483000C884DF80EE80FD800C811B81AA81B98154
:10484000CE0FD11D0FB6F894DEBF0FBECDBFED0168
:104850000895AA1BBB1B51E107C0AA1FBB1FA617C7
:10486000B70710F0A61BB70B881F991F5A95A9F719
:1048700080959095BC01CD010895FB01DC0104C039
:104880008D910190801921F441505040C8F7881B48
:10489000990B0895FB01DC0102C001900D9241507B
:1048A0005040D8F70895F999FECF92BD81BDF89A8E
:1048B000992780B50895A8E1B0E042E050E00C945B
:1048C0008724262FF999FECF92BD81BDF89A0197D2
:1048D00000B4021639F01FBA20BD0FB6F894FA9A48
:1048E000F99A0FBE08950396272F0E9462240E9412
:1048F0006124252F0E946224242F0C9462240196A7
:10490000272F0E9462240C946124DC01CB01FC015E
:10491000F999FECF06C0F2BDE1BDF89A319600B418
:104920000D9241505040B8F70895F894FFCF3805E4
:10493000380589058905FC051806670567051D0604
:10494000840693069306541560159615A815B3159D
:10495000BE15C115C115C11566156615C615CA1552
:10496000D215DF15EC15EF15F215FF156416D816E4
:104970006C1636163A1670163E16741680164A16BF
:10498000D1164E16841652168816B01656168C1668
:10499000B7165C1692169A164216781646167C16AC
:1049A00060169616A616C016CF1630166816DF16B5
:1049B000051A0B1AF419FF19111A171A1D1A782261
:1049C000A0228923A0228923D322F42289234B23E6
:0249D00057236B
:1049D2001E02280850011E0A1401030201E41C19D8
:1049E2001D121D0B1D01E200E900EA00B500B60030
:1049F200B700CD008301CC008A019201940121020B
:104A0200230224022502260227022A02B300B4004E
:104A12006F0070009F01CB019F02A002818283E29E
:104A220000E900EA00B500B600B700CD008301CC72
:104A3200008A019201940121022302240225022606
:104A42000227022A02B300B4006F0070009F01CB5C
:104A5200019F02A00281828391906264656667373A
:104A620036353433959693944022B60F0437035962
:084A720003DC02F5021503004C
:00000001FF
